{"abi":[{"type":"constructor","inputs":[{"name":"_emberToken","type":"address","internalType":"address"},{"name":"_minBackingThreshold","type":"uint256","internalType":"uint256"}],"stateMutability":"nonpayable"},{"type":"function","name":"BURN_ADDRESS","inputs":[],"outputs":[{"name":"","type":"address","internalType":"address"}],"stateMutability":"view"},{"type":"function","name":"BURN_BPS","inputs":[],"outputs":[{"name":"","type":"uint256","internalType":"uint256"}],"stateMutability":"view"},{"type":"function","name":"MAX_IDEAS_PER_ROUND","inputs":[],"outputs":[{"name":"","type":"uint256","internalType":"uint256"}],"stateMutability":"view"},{"type":"function","name":"MIN_BACKING_AMOUNT","inputs":[],"outputs":[{"name":"","type":"uint256","internalType":"uint256"}],"stateMutability":"view"},{"type":"function","name":"SUBMISSION_DURATION","inputs":[],"outputs":[{"name":"","type":"uint256","internalType":"uint256"}],"stateMutability":"view"},{"type":"function","name":"VOTING_DURATION","inputs":[],"outputs":[{"name":"","type":"uint256","internalType":"uint256"}],"stateMutability":"view"},{"type":"function","name":"acceptOwnership","inputs":[],"outputs":[],"stateMutability":"nonpayable"},{"type":"function","name":"backIdea","inputs":[{"name":"_ideaId","type":"uint256","internalType":"uint256"},{"name":"_amount","type":"uint256","internalType":"uint256"}],"outputs":[],"stateMutability":"nonpayable"},{"type":"function","name":"backerIndex","inputs":[{"name":"","type":"uint256","internalType":"uint256"},{"name":"","type":"uint256","internalType":"uint256"},{"name":"","type":"address","internalType":"address"}],"outputs":[{"name":"","type":"uint256","internalType":"uint256"}],"stateMutability":"view"},{"type":"function","name":"calculatePotentialWinnings","inputs":[{"name":"_roundId","type":"uint256","internalType":"uint256"},{"name":"_ideaId","type":"uint256","internalType":"uint256"},{"name":"_backer","type":"address","internalType":"address"}],"outputs":[{"name":"potentialWinnings","type":"uint256","internalType":"uint256"}],"stateMutability":"view"},{"type":"function","name":"claimWinnings","inputs":[{"name":"_roundId","type":"uint256","internalType":"uint256"}],"outputs":[],"stateMutability":"nonpayable"},{"type":"function","name":"currentRoundId","inputs":[],"outputs":[{"name":"","type":"uint256","internalType":"uint256"}],"stateMutability":"view"},{"type":"function","name":"emberToken","inputs":[],"outputs":[{"name":"","type":"address","internalType":"contract IERC20"}],"stateMutability":"view"},{"type":"function","name":"emergencyWithdraw","inputs":[{"name":"_token","type":"address","internalType":"address"},{"name":"_to","type":"address","internalType":"address"},{"name":"_amount","type":"uint256","internalType":"uint256"}],"outputs":[],"stateMutability":"nonpayable"},{"type":"function","name":"getCurrentPhase","inputs":[],"outputs":[{"name":"phase","type":"uint256","internalType":"uint256"}],"stateMutability":"view"},{"type":"function","name":"getCurrentRound","inputs":[],"outputs":[{"name":"","type":"tuple","internalType":"struct EmberArena.Round","components":[{"name":"roundId","type":"uint256","internalType":"uint256"},{"name":"submissionStart","type":"uint256","internalType":"uint256"},{"name":"votingStart","type":"uint256","internalType":"uint256"},{"name":"votingEnd","type":"uint256","internalType":"uint256"},{"name":"totalPool","type":"uint256","internalType":"uint256"},{"name":"winningIdeaId","type":"uint256","internalType":"uint256"},{"name":"resolved","type":"bool","internalType":"bool"},{"name":"ideaCount","type":"uint256","internalType":"uint256"}]}],"stateMutability":"view"},{"type":"function","name":"getIdea","inputs":[{"name":"_ideaId","type":"uint256","internalType":"uint256"}],"outputs":[{"name":"","type":"tuple","internalType":"struct EmberArena.Idea","components":[{"name":"ideaId","type":"uint256","internalType":"uint256"},{"name":"roundId","type":"uint256","internalType":"uint256"},{"name":"creator","type":"address","internalType":"address"},{"name":"description","type":"string","internalType":"string"},{"name":"metadata","type":"string","internalType":"string"},{"name":"totalBacking","type":"uint256","internalType":"uint256"},{"name":"isWinner","type":"bool","internalType":"bool"}]}],"stateMutability":"view"},{"type":"function","name":"getIdeaBackings","inputs":[{"name":"_roundId","type":"uint256","internalType":"uint256"},{"name":"_ideaId","type":"uint256","internalType":"uint256"}],"outputs":[{"name":"","type":"tuple[]","internalType":"struct EmberArena.Backing[]","components":[{"name":"backer","type":"address","internalType":"address"},{"name":"ideaId","type":"uint256","internalType":"uint256"},{"name":"amount","type":"uint256","internalType":"uint256"},{"name":"claimed","type":"bool","internalType":"bool"}]}],"stateMutability":"view"},{"type":"function","name":"getRoundIdeaIds","inputs":[{"name":"_roundId","type":"uint256","internalType":"uint256"}],"outputs":[{"name":"","type":"uint256[]","internalType":"uint256[]"}],"stateMutability":"view"},{"type":"function","name":"getRoundInfo","inputs":[{"name":"_roundId","type":"uint256","internalType":"uint256"}],"outputs":[{"name":"","type":"tuple","internalType":"struct EmberArena.Round","components":[{"name":"roundId","type":"uint256","internalType":"uint256"},{"name":"submissionStart","type":"uint256","internalType":"uint256"},{"name":"votingStart","type":"uint256","internalType":"uint256"},{"name":"votingEnd","type":"uint256","internalType":"uint256"},{"name":"totalPool","type":"uint256","internalType":"uint256"},{"name":"winningIdeaId","type":"uint256","internalType":"uint256"},{"name":"resolved","type":"bool","internalType":"bool"},{"name":"ideaCount","type":"uint256","internalType":"uint256"}]}],"stateMutability":"view"},{"type":"function","name":"getUserBackingForIdea","inputs":[{"name":"_user","type":"address","internalType":"address"},{"name":"_roundId","type":"uint256","internalType":"uint256"},{"name":"_ideaId","type":"uint256","internalType":"uint256"}],"outputs":[{"name":"","type":"tuple","internalType":"struct EmberArena.Backing","components":[{"name":"backer","type":"address","internalType":"address"},{"name":"ideaId","type":"uint256","internalType":"uint256"},{"name":"amount","type":"uint256","internalType":"uint256"},{"name":"claimed","type":"bool","internalType":"bool"}]}],"stateMutability":"view"},{"type":"function","name":"getUserBackings","inputs":[{"name":"_user","type":"address","internalType":"address"},{"name":"_roundId","type":"uint256","internalType":"uint256"}],"outputs":[{"name":"backedIdeaIds","type":"uint256[]","internalType":"uint256[]"}],"stateMutability":"view"},{"type":"function","name":"hasBacked","inputs":[{"name":"","type":"uint256","internalType":"uint256"},{"name":"","type":"uint256","internalType":"uint256"},{"name":"","type":"address","internalType":"address"}],"outputs":[{"name":"","type":"bool","internalType":"bool"}],"stateMutability":"view"},{"type":"function","name":"ideaBackings","inputs":[{"name":"","type":"uint256","internalType":"uint256"},{"name":"","type":"uint256","internalType":"uint256"},{"name":"","type":"uint256","internalType":"uint256"}],"outputs":[{"name":"backer","type":"address","internalType":"address"},{"name":"ideaId","type":"uint256","internalType":"uint256"},{"name":"amount","type":"uint256","internalType":"uint256"},{"name":"claimed","type":"bool","internalType":"bool"}],"stateMutability":"view"},{"type":"function","name":"ideas","inputs":[{"name":"","type":"uint256","internalType":"uint256"}],"outputs":[{"name":"ideaId","type":"uint256","internalType":"uint256"},{"name":"roundId","type":"uint256","internalType":"uint256"},{"name":"creator","type":"address","internalType":"address"},{"name":"description","type":"string","internalType":"string"},{"name":"metadata","type":"string","internalType":"string"},{"name":"totalBacking","type":"uint256","internalType":"uint256"},{"name":"isWinner","type":"bool","internalType":"bool"}],"stateMutability":"view"},{"type":"function","name":"minBackingThreshold","inputs":[],"outputs":[{"name":"","type":"uint256","internalType":"uint256"}],"stateMutability":"view"},{"type":"function","name":"owner","inputs":[],"outputs":[{"name":"","type":"address","internalType":"address"}],"stateMutability":"view"},{"type":"function","name":"pause","inputs":[],"outputs":[],"stateMutability":"nonpayable"},{"type":"function","name":"paused","inputs":[],"outputs":[{"name":"","type":"bool","internalType":"bool"}],"stateMutability":"view"},{"type":"function","name":"pendingOwner","inputs":[],"outputs":[{"name":"","type":"address","internalType":"address"}],"stateMutability":"view"},{"type":"function","name":"renounceOwnership","inputs":[],"outputs":[],"stateMutability":"nonpayable"},{"type":"function","name":"roundIdeas","inputs":[{"name":"","type":"uint256","internalType":"uint256"},{"name":"","type":"uint256","internalType":"uint256"}],"outputs":[{"name":"","type":"uint256","internalType":"uint256"}],"stateMutability":"view"},{"type":"function","name":"rounds","inputs":[{"name":"","type":"uint256","internalType":"uint256"}],"outputs":[{"name":"roundId","type":"uint256","internalType":"uint256"},{"name":"submissionStart","type":"uint256","internalType":"uint256"},{"name":"votingStart","type":"uint256","internalType":"uint256"},{"name":"votingEnd","type":"uint256","internalType":"uint256"},{"name":"totalPool","type":"uint256","internalType":"uint256"},{"name":"winningIdeaId","type":"uint256","internalType":"uint256"},{"name":"resolved","type":"bool","internalType":"bool"},{"name":"ideaCount","type":"uint256","internalType":"uint256"}],"stateMutability":"view"},{"type":"function","name":"selectWinner","inputs":[{"name":"_ideaId","type":"uint256","internalType":"uint256"}],"outputs":[],"stateMutability":"nonpayable"},{"type":"function","name":"setMinBackingThreshold","inputs":[{"name":"_newThreshold","type":"uint256","internalType":"uint256"}],"outputs":[],"stateMutability":"nonpayable"},{"type":"function","name":"startRound","inputs":[],"outputs":[],"stateMutability":"nonpayable"},{"type":"function","name":"submitIdea","inputs":[{"name":"_description","type":"string","internalType":"string"},{"name":"_metadata","type":"string","internalType":"string"}],"outputs":[{"name":"ideaId","type":"uint256","internalType":"uint256"}],"stateMutability":"nonpayable"},{"type":"function","name":"totalIdeas","inputs":[],"outputs":[{"name":"","type":"uint256","internalType":"uint256"}],"stateMutability":"view"},{"type":"function","name":"transferOwnership","inputs":[{"name":"newOwner","type":"address","internalType":"address"}],"outputs":[],"stateMutability":"nonpayable"},{"type":"function","name":"unpause","inputs":[],"outputs":[],"stateMutability":"nonpayable"},{"type":"event","name":"IdeaBacked","inputs":[{"name":"roundId","type":"uint256","indexed":true,"internalType":"uint256"},{"name":"ideaId","type":"uint256","indexed":true,"internalType":"uint256"},{"name":"backer","type":"address","indexed":true,"internalType":"address"},{"name":"amount","type":"uint256","indexed":false,"internalType":"uint256"}],"anonymous":false},{"type":"event","name":"IdeaSubmitted","inputs":[{"name":"roundId","type":"uint256","indexed":true,"internalType":"uint256"},{"name":"ideaId","type":"uint256","indexed":true,"internalType":"uint256"},{"name":"creator","type":"address","indexed":true,"internalType":"address"},{"name":"description","type":"string","indexed":false,"internalType":"string"}],"anonymous":false},{"type":"event","name":"MinBackingThresholdUpdated","inputs":[{"name":"oldThreshold","type":"uint256","indexed":false,"internalType":"uint256"},{"name":"newThreshold","type":"uint256","indexed":false,"internalType":"uint256"}],"anonymous":false},{"type":"event","name":"OwnershipTransferStarted","inputs":[{"name":"previousOwner","type":"address","indexed":true,"internalType":"address"},{"name":"newOwner","type":"address","indexed":true,"internalType":"address"}],"anonymous":false},{"type":"event","name":"OwnershipTransferred","inputs":[{"name":"previousOwner","type":"address","indexed":true,"internalType":"address"},{"name":"newOwner","type":"address","indexed":true,"internalType":"address"}],"anonymous":false},{"type":"event","name":"Paused","inputs":[{"name":"account","type":"address","indexed":false,"internalType":"address"}],"anonymous":false},{"type":"event","name":"RoundStarted","inputs":[{"name":"roundId","type":"uint256","indexed":true,"internalType":"uint256"},{"name":"submissionStart","type":"uint256","indexed":false,"internalType":"uint256"},{"name":"votingStart","type":"uint256","indexed":false,"internalType":"uint256"},{"name":"votingEnd","type":"uint256","indexed":false,"internalType":"uint256"}],"anonymous":false},{"type":"event","name":"TokensBurned","inputs":[{"name":"roundId","type":"uint256","indexed":true,"internalType":"uint256"},{"name":"amount","type":"uint256","indexed":false,"internalType":"uint256"}],"anonymous":false},{"type":"event","name":"Unpaused","inputs":[{"name":"account","type":"address","indexed":false,"internalType":"address"}],"anonymous":false},{"type":"event","name":"WinnerSelected","inputs":[{"name":"roundId","type":"uint256","indexed":true,"internalType":"uint256"},{"name":"winningIdeaId","type":"uint256","indexed":true,"internalType":"uint256"},{"name":"creator","type":"address","indexed":true,"internalType":"address"},{"name":"totalPool","type":"uint256","indexed":false,"internalType":"uint256"}],"anonymous":false},{"type":"event","name":"WinningsClaimed","inputs":[{"name":"roundId","type":"uint256","indexed":true,"internalType":"uint256"},{"name":"backer","type":"address","indexed":true,"internalType":"address"},{"name":"amount","type":"uint256","indexed":false,"internalType":"uint256"}],"anonymous":false},{"type":"error","name":"AlreadyClaimed","inputs":[]},{"type":"error","name":"AmountBelowMinimum","inputs":[]},{"type":"error","name":"EmptyDescription","inputs":[]},{"type":"error","name":"EnforcedPause","inputs":[]},{"type":"error","name":"ExpectedPause","inputs":[]},{"type":"error","name":"IdeaBelowThreshold","inputs":[]},{"type":"error","name":"IdeaDoesNotExist","inputs":[]},{"type":"error","name":"IdeaNotInCurrentRound","inputs":[]},{"type":"error","name":"InvalidRoundId","inputs":[]},{"type":"error","name":"MaxIdeasReached","inputs":[]},{"type":"error","name":"NotInSubmissionPhase","inputs":[]},{"type":"error","name":"NotInVotingPhase","inputs":[]},{"type":"error","name":"NothingToClaim","inputs":[]},{"type":"error","name":"OwnableInvalidOwner","inputs":[{"name":"owner","type":"address","internalType":"address"}]},{"type":"error","name":"OwnableUnauthorizedAccount","inputs":[{"name":"account","type":"address","internalType":"address"}]},{"type":"error","name":"ReentrancyGuardReentrantCall","inputs":[]},{"type":"error","name":"RoundAlreadyActive","inputs":[]},{"type":"error","name":"RoundAlreadyResolved","inputs":[]},{"type":"error","name":"RoundNotActive","inputs":[]},{"type":"error","name":"RoundNotResolved","inputs":[]},{"type":"error","name":"SafeERC20FailedOperation","inputs":[{"name":"token","type":"address","internalType":"address"}]},{"type":"error","name":"TransferFailed","inputs":[]},{"type":"error","name":"ZeroAddress","inputs":[]},{"type":"error","name":"ZeroAmount","inputs":[]}],"bytecode":{"object":"0x60a03461012a57601f620022fe38819003918201601f19168301916001600160401b0383118484101761012e57808492604094855283398101031261012a5780516001600160a01b03918282169182900361012a57602001519133156101125760018060a01b031980600154166001555f549033908216175f55604051913391167f8be0079c531659141344cd1fd0a4f28419497f9722a3daafe3b4186f6b6457e05f80a360017f9b779b17422d0df92223018b32b4d1fa46e071723d6817e2486d003becc55f0055811561010357506080526002556040516121bb9081620001438239608051818181610ee8015281816112e9015281816117e10152611a900152f35b63d92e233d60e01b8152600490fd5b604051631e4fbdf760e01b81525f6004820152602490fd5b5f80fd5b634e487b7160e01b5f52604160045260245ffdfe6080806040526004361015610012575f80fd5b60e05f35811c9182630cae9d5e14611a7e5750816319b5fb0c14611a385781631e3fd2f2146119bc57816323a814cb146116b457816324f6a6c31461166057816338a93ba01461164357816339e2951e1461162a5781633f4ba83a146115b957816344de6b2f146114945781634be9897d1461142c5781634c524be4146111cf5781635438765b1461116d57816355e3f08614610fe157816359e3e22614610fa05781635c975abb14610f7b578163677bd9ff14610db4578163715018a614610d5157816379ba509714610cd1578163844a61c714610be45781638456cb5914610b835781638485b79614610b6857816388c3ffb014610b2c5781638c65c81f14610ab15781638da5cb5b14610a8a5781638e798421146105ef57816395b538371461054d5781639cbe5efd14610530578163a32bf5971461044e57508063a37a9fc014610432578063a3a40ea514610410578063a438d2081461040b578063a74ae7411461040b578063a9698e2a14610378578063b4efa9a01461035b578063c7c30c851461033a578063e30c397814610312578063e63ea4081461029c578063ef233f011461025f578063f2fde38b146101f65763fccc2813146101d6575f80fd5b346101f2575f3660031901126101f257602060405161dead8152f35b5f80fd5b346101f25760203660031901126101f25761020f611abf565b6102176120d4565b60018060a01b0380911690816001600160601b0360a01b60015416176001555f54167f38d16b8cac22d99fc7c124b9cd0de2d3fa1faef420bfe791d8c362d765e227005f80a3005b346101f25761026d36611b2c565b905f52600760205260405f2080548210156101f25760209161028e91611d57565b90546040519160031b1c8152f35b346101f25760603660031901126101f2576102b5611abf565b6001600160a01b03602435818116918282036101f257604435926102d76120d4565b156103005782156102ee576102ec93166120e7565b005b604051631f2a200560e01b8152600490fd5b60405163d92e233d60e01b8152600490fd5b346101f2575f3660031901126101f2576001546040516001600160a01b039091168152602090f35b346101f2575f3660031901126101f2576020604051662386f26fc100008152f35b346101f2575f3660031901126101f2576020600254604051908152f35b346101f25760403660031901126101f2576001600160a01b03610399611abf565b165f526020600860205260405f206024355f5260205260405f20906040519081602084549182815201935f5260205f20915f905b8282106103f4576103f0856103e481890382611c76565b60405191829182611b80565b0390f35b8354865294850194600193840193909101906103cd565b611d3a565b346101f2575f3660031901126101f257602061042a612046565b604051908152f35b346101f2575f3660031901126101f25760206040516107d08152f35b346101f2575f3660031901126101f2576103f09061046a611fc4565b506003545f52600560205260405f209060076040519261048984611c59565b8054845260018101546020850152600281015460408501526003810154606085015260048101546080850152600581015460a085015260ff600682015416151560c08501520154908201526040519182918291909160e080610100830194805184526020810151602085015260408101516040850152606081015160608501526080810151608085015260a081015160a085015260c0810151151560c08501520151910152565b346101f2575f3660031901126101f2576020600354604051908152f35b346101f25760203660031901126101f2576004355f52600660205260405f208054906001810154926105de60018060a01b03600284015416916105d061059560038601611c98565b6105a160048701611c98565b9260ff600660058901549801541695604051998a998a5260208a01526040890152806060890152870190611b42565b908582036080870152611b42565b9160a0840152151560c08301520390f35b346101f25760403660031901126101f25760043567ffffffffffffffff81116101f257610620903690600401611bbb565b60243567ffffffffffffffff81116101f257610640903690600401611bbb565b919061064a612084565b6106526120a5565b8115610a78576003548015610a6657805f52600560205260405f209160018301544210610a54576002830154421015610a5457606460078401541015610a425761069d600454611fb6565b94856004556106db604051926106b284611c3d565b8784526020840194855260408401923384526106cf36898c612000565b60608601523691612000565b60808301525f60a08301525f60c0830152855f52600660205260405f209282518455516001840155600283019060018060a01b039051166001600160601b0360a01b825416179055606081015180519067ffffffffffffffff82116109655781906107496003860154611be9565b601f81116109f2575b50602090601f8311600114610984575f92610979575b50508160011b915f199060031b1c19161760038301555b608081015180519067ffffffffffffffff8211610965576107a36004850154611be9565b601f8111610921575b509160209793918795938990601f83116001146108ab57928260069360c09361080f97965f926108a0575b50508160011b915f199060031b1c19161760048501555b60a081015160058501550151151591019060ff801983541691151516179055565b6003545f52600786526108258360405f20611d79565b600761083381830154611fb6565b9101557f70da0224edb4c029ee3dfdccb505f32b5ed4f708f6084225f35f35d177d1574e600354918460405191888352818984015260408301375f604086830101526040813396601f80199101168101030190a460015f8051602061216683398151915255604051908152f35b015190508d806107d7565b90600485015f528a5f20915f5b601f198516811061090757508360c09361080f979693600193600697601f198116106108ef575b505050811b0160048501556107ee565b01515f1960f88460031b161c191690558d80806108df565b8183015184558b9950600190930192918c01918c016108b8565b600485015f5260205f20601f840160051c81016020851061095e575b601f830160051c820181106109535750506107ac565b5f815560010161093d565b508061093d565b634e487b7160e01b5f52604160045260245ffd5b015190508880610768565b9250600385015f5260205f20905f935b601f19841685106109d7576001945083601f198116106109bf575b505050811b01600383015561077f565b01515f1960f88460031b161c191690558880806109af565b81810151835560209485019460019093019290910190610994565b909150600385015f5260205f20601f840160051c810160208510610a3b575b90849392915b601f830160051c82018110610a2d575050610752565b5f8155859450600101610a17565b5080610a11565b60405163408ccf4d60e11b8152600490fd5b6040516359ef4e9160e01b8152600490fd5b604051633df07da560e01b8152600490fd5b60405163d937d5df60e01b8152600490fd5b346101f2575f3660031901126101f2575f546040516001600160a01b039091168152602090f35b346101f25760203660031901126101f257610100906004355f52600560205260405f2080549160018201549160028101546003820154600483015490600584015492600760ff60068701541695015496604051988952602089015260408801526060870152608086015260a0850152151560c0840152820152f35b346101f25760203660031901126101f2576103f090610b49611fc4565b506004355f52600560205260405f209060076040519261048984611c59565b346101f2575f3660031901126101f257602060405160648152f35b346101f2575f3660031901126101f257610b9b6120d4565b610ba3612084565b6001805460ff60a01b1916600160a01b1790556040513381527f62e78cea01bee320cd4e420270b5ea74000d11b0c9f74754ebdbfc544b05a25890602090a1005b346101f257610bf236611b2c565b905f526020906009825260405f20905f52815260405f2090815467ffffffffffffffff81116109655760405190610c2e838260051b0183611c76565b80825282820180945f52835f205f915b838310610cb4576040805187815286518189018190528992820190895f5b828110610c695784840385f35b90919282608082610ca56001948a516060809160018060a01b038151168452602081015160208501526040810151604085015201511515910152565b01960191019492919094610c5c565b600486600192610cc385611ebf565b815201920192019190610c3e565b346101f2575f3660031901126101f2576001546001600160a01b033381831603610d39576001600160601b0360a01b8092166001555f549133908316175f553391167f8be0079c531659141344cd1fd0a4f28419497f9722a3daafe3b4186f6b6457e05f80a3005b60405163118cdaa760e01b8152336004820152602490fd5b346101f2575f3660031901126101f257610d696120d4565b600180546001600160a01b03199081169091555f80549182168155906001600160a01b03167f8be0079c531659141344cd1fd0a4f28419497f9722a3daafe3b4186f6b6457e08280a3005b346101f2576020806003193601126101f257600435610dd1612084565b610dd96120a5565b80158015610f70575b610f5e57805f526005825260405f209160ff60068401541615610f4c57600583015490825f52600b815260405f20825f52815260405f20335f52815260ff60405f20541615610f2857825f52600a815260405f20825f52815260405f20335f528152610e6560405f2054845f526009835260405f20845f52835260405f20611aff565b5091600383019485549360ff8516610f3a57610ea6600591610eaf945f52600686526002612710610e9d600460405f20970154611dad565b04910154611dc4565b91015490611dd7565b938415610f285760017f5380cf6fe903b40c6d5a9e0dfbca2f3a423f0a21520b4d5947ed5169bdba946d9360ff1916179055610f0c84337f00000000000000000000000000000000000000000000000000000000000000006120e7565b6040519384523393a360015f8051602061216683398151915255005b6040516312d37ee560e31b8152600490fd5b604051630c8d9eab60e31b8152600490fd5b604051637150b2cd60e11b8152600490fd5b60405163bfbe031f60e01b8152600490fd5b506003548111610de2565b346101f2575f3660031901126101f257602060ff60015460a01c166040519015158152f35b346101f257610fae36611ad5565b915f52600a60205260405f20905f5260205260405f209060018060a01b03165f52602052602060405f2054604051908152f35b346101f2575f3660031901126101f257610ff96120d4565b611001612084565b6110096120a5565b6003548061112b575b61101b90611fb6565b908160035562015180420190814211611117576202a300420191828111611117577ffd9d17e5565deea3d25918d95fc398673b9445ef0a96d12eaf3ab2b198756c65926060926007866110ee6040519361107485611c59565b828552602085014281526040860188815289870188815260808801915f835260a08901935f855260c08a01955f87528a01975f89525f52600560205260405f2099518a555160018a0155516002890155516003880155516004870155516005860155511515600685019060ff801983541691151516179055565b519101556040519142835260208301526040820152a260015f8051602061216683398151915255005b634e487b7160e01b5f52601160045260245ffd5b805f52600560205260405f2060ff60068201541615908161115f575b5015611012576040516391d83a1b60e01b8152600490fd5b600391500154421083611147565b346101f25760603660031901126101f257608061119861118b611abf565b6044359060243590611eff565b6111cd60405180926060809160018060a01b038151168452602081015160208501526040810151604085015201511515910152565bf35b346101f2576020806003193601126101f257600435906111ed6120d4565b6111f5612084565b6111fd6120a5565b600354918215610a6657825f526005825260405f206003810154421061141a576006810180549160ff831661140857835f526006855260405f20928354156113f65760019687850154036113e4576005840154600254116113d2576004928560058401558760ff198093161790558660068501918254161790550154926107d0808502908582041485151715611117576127109004806112e7575b506003546002909201546040519485526001600160a01b0316937fb8639d96359347ee9c2450fb169ec40a1539570d38bca935b1e2a6fed3e694e49190a45f8051602061216683398151915255005b7f00000000000000000000000000000000000000000000000000000000000000006040519063a9059cbb60e01b5f5261dead60045282602452835f60448180855af1885f51148116156113b4575b8260405215611396575050907fb8639d96359347ee9c2450fb169ec40a1539570d38bca935b1e2a6fed3e694e4917f8bc81353cf6671d259d22783e39ed930583c86f3f4cf7e981298e6a872dfb15d8260035492604051908152a290611298565b635274afe760e01b82526001600160a01b0316600482015260249150fd5b888115166113c957813b15153d151616611335565b823d5f823e3d90fd5b604051630105c3df60e21b8152600490fd5b604051634cfd9acb60e11b8152600490fd5b60405163091a93c360e41b8152600490fd5b604051637e28f94960e01b8152600490fd5b60405163efeac3fb60e01b8152600490fd5b346101f2576020806003193601126101f2576004355f52600760205260405f20906040519081602084549182815201935f5260205f20915f905b82821061147d576103f0856103e481890382611c76565b835486529485019460019384019390910190611466565b346101f257602090816003193601126101f2575f60c06040516114b681611c3d565b8281528285820152826040820152606080820152606060808201528260a082015201526004355f526006825260405f20604051916114f383611c3d565b81548352600182015484840190815260028301546001600160a01b03908116604086019081526115a7916115949061152d60038801611c98565b906060890191825261154160048901611c98565b9360808a0194855260ff600660058b01549a60a08d019b8c520154169660c08b0197151588526040519b8c9b818d5251908c01525160408b01525116606089015251856080890152610100880190611b42565b9051868203601f190160a0880152611b42565b925160c0850152511515908301520390f35b346101f2575f3660031901126101f2576115d16120d4565b60015460ff8160a01c16156116185760ff60a01b19166001556040513381527f5db9ee0a495bf2e6ff9c91a7834c1ba4fdd244a5e8aa4e537bd38aeae4b073aa90602090a1005b604051638dfc202b60e01b8152600490fd5b346101f257602061042a61163d36611ad5565b91611df5565b346101f2575f3660031901126101f2576020600454604051908152f35b346101f25760203660031901126101f2577fe1cb505db8f91607a81e5a2689f5d82d16315e97b5244a5d8a67c9cfe270f2f3604060043561169f6120d4565b600254908060025582519182526020820152a1005b346101f2576116c236611b2c565b6116ca612084565b6116d26120a5565b662386f26fc1000081106119aa576003918254928315610a6657835f526020906005825260405f206002810154421061141a578181015442101561141a57835f526006835260405f20908154156113f65760019687830154036113e457600560049201611740878254611d6c565b90550161174e858254611d6c565b90558054805f526009835260405f20845f52835260405f205490805f52600b845260405f20855f52845260405f20335f52845260ff60405f2054165f1461189157505060026117cf8254805f52600a855260405f20865f52855260405f20335f52855260405f2054905f526009855260405f20865f52855260405f20611aff565b50016117dc858254611d6c565b90555b7f0000000000000000000000000000000000000000000000000000000000000000604051906323b872dd60e01b5f52336004523060245285604452835f60648180855af1875f511481161561187c575b826040525f606052156113965750507ff6a365d01fb18d71e86a016f0ddba95db258dd4476b778721ab5db877d695ae89054916040519485523394a45f8051602061216683398151915255005b878115166113c957813b15153d15161661182f565b5f526009835260405f20845f52835260405f20604051906118b182611c21565b33825284820191868352604081019188835260608201905f82528054600160401b811015610965576118e7918c82018155611aff565b9390936119975761193094879360018060a01b039051166001600160601b0360a01b865416178555518b85015551600284015551151591019060ff801983541691151516179055565b81545f52600b835260405f20845f52835260405f20335f52835260405f208660ff1982541617905581545f52600a835260405f20845f52835260405f20335f52835260405f20556008825260405f2081545f5282526119928360405f20611d79565b6117df565b634e487b7160e01b5f525f60045260245ffd5b604051632fcd1a0f60e01b8152600490fd5b346101f25760603660031901126101f2576044356004355f52600960205260405f206024355f5260205260405f2080548210156101f2576080916119ff91611aff565b5060018060a01b038154169060018101549060ff6003600283015492015416916040519384526020840152604083015215156060820152f35b346101f257611a4636611ad5565b915f52600b60205260405f20905f5260205260405f209060018060a01b03165f52602052602060ff60405f2054166040519015158152f35b346101f2575f3660031901126101f2577f00000000000000000000000000000000000000000000000000000000000000006001600160a01b03168152602090f35b600435906001600160a01b03821682036101f257565b60609060031901126101f25760043590602435906044356001600160a01b03811681036101f25790565b8054821015611b18575f5260205f209060021b01905f90565b634e487b7160e01b5f52603260045260245ffd5b60409060031901126101f2576004359060243590565b91908251928382525f5b848110611b6c575050825f602080949584010152601f8019910116010190565b602081830181015184830182015201611b4c565b60209060206040818301928281528551809452019301915f5b828110611ba7575050505090565b835185529381019392810192600101611b99565b9181601f840112156101f25782359167ffffffffffffffff83116101f257602083818601950101116101f257565b90600182811c92168015611c17575b6020831014611c0357565b634e487b7160e01b5f52602260045260245ffd5b91607f1691611bf8565b6080810190811067ffffffffffffffff82111761096557604052565b60e0810190811067ffffffffffffffff82111761096557604052565b610100810190811067ffffffffffffffff82111761096557604052565b90601f8019910116810190811067ffffffffffffffff82111761096557604052565b9060405191825f8254611caa81611be9565b908184526020946001916001811690815f14611d185750600114611cda575b505050611cd892500383611c76565b565b5f90815285812095935091905b818310611d00575050611cd893508201015f8080611cc9565b85548884018501529485019487945091830191611ce7565b92505050611cd894925060ff191682840152151560051b8201015f8080611cc9565b346101f2575f3660031901126101f2576020604051620151808152f35b8054821015611b18575f5260205f2001905f90565b9190820180921161111757565b8054600160401b81101561096557611d9691600182018155611d57565b819291549060031b91821b915f19901b1916179055565b90611f409182810292818404149015171561111757565b8181029291811591840414171561111757565b8115611de1570490565b634e487b7160e01b5f52601260045260245ffd5b91825f52602092600b8452604090815f20845f528552815f209260018060a01b031692835f52855260ff825f20541615611eb657805f5260058552815f2091845f52600686526005815f200154948515611eab576002611e9184611e9c94600494611ea89b611ea39a612710995f52600a8252835f20835f528252835f20905f528152825f2054935f5260098152825f20915f52525f20611aff565b500154930154611dad565b0490611dc4565b611dd7565b90565b505050505050505f90565b50505050505f90565b90604051611ecc81611c21565b82546001600160a01b03168152600183015460208201526002830154604082015260039092015460ff1615156060830152565b91604090815193611f0f85611c21565b5f85525f6060602096828882015282868201520152835f52600b8552825f20825f528552825f209060018060a01b031690815f52855260ff835f20541615611f925790611ea894849392611f8c955f52600a8252835f20835f528252835f20905f528152825f2054935f5260098152825f20915f52525f20611aff565b50611ebf565b50505f809250815193611fa485611c21565b8185528401528201525f606082015290565b5f1981146111175760010190565b60405190611fd182611c59565b5f60e0838281528260208201528260408201528260608201528260808201528260a08201528260c08201520152565b92919267ffffffffffffffff8211610965576040519161202a601f8201601f191660200184611c76565b8294818452818301116101f2578281602093845f960137010152565b600354801561207f575f52600560205260405f20600281015442106120795760030154421061207457600390565b600290565b50600190565b505f90565b60ff60015460a01c1661209357565b60405163d93c066560e01b8152600490fd5b5f8051602061216683398151915260028154146120c25760029055565b604051633ee5aeb560e01b8152600490fd5b5f546001600160a01b03163303610d3957565b60405163a9059cbb60e01b5f9081526001600160a01b039384166004526024949094529260209060448180855af160015f5114811615612146575b836040521561213057505050565b635274afe760e01b835216600482015260249150fd5b600181151661215c57813b15153d151616612122565b833d5f823e3d90fdfe9b779b17422d0df92223018b32b4d1fa46e071723d6817e2486d003becc55f00a26469706673582212205a202f6141b533bf68584113615184a0dc1aef82206c16907439051dcea239d064736f6c63430008180033","linkReferences":{}},"methodIdentifiers":{"BURN_ADDRESS()":"fccc2813","BURN_BPS()":"a37a9fc0","MAX_IDEAS_PER_ROUND()":"8485b796","MIN_BACKING_AMOUNT()":"c7c30c85","SUBMISSION_DURATION()":"a74ae741","VOTING_DURATION()":"a438d208","acceptOwnership()":"79ba5097","backIdea(uint256,uint256)":"23a814cb","backerIndex(uint256,uint256,address)":"59e3e226","calculatePotentialWinnings(uint256,uint256,address)":"39e2951e","claimWinnings(uint256)":"677bd9ff","currentRoundId()":"9cbe5efd","emberToken()":"0cae9d5e","emergencyWithdraw(address,address,uint256)":"e63ea408","getCurrentPhase()":"a3a40ea5","getCurrentRound()":"a32bf597","getIdea(uint256)":"44de6b2f","getIdeaBackings(uint256,uint256)":"844a61c7","getRoundIdeaIds(uint256)":"4be9897d","getRoundInfo(uint256)":"88c3ffb0","getUserBackingForIdea(address,uint256,uint256)":"5438765b","getUserBackings(address,uint256)":"a9698e2a","hasBacked(uint256,uint256,address)":"19b5fb0c","ideaBackings(uint256,uint256,uint256)":"1e3fd2f2","ideas(uint256)":"95b53837","minBackingThreshold()":"b4efa9a0","owner()":"8da5cb5b","pause()":"8456cb59","paused()":"5c975abb","pendingOwner()":"e30c3978","renounceOwnership()":"715018a6","roundIdeas(uint256,uint256)":"ef233f01","rounds(uint256)":"8c65c81f","selectWinner(uint256)":"4c524be4","setMinBackingThreshold(uint256)":"24f6a6c3","startRound()":"55e3f086","submitIdea(string,string)":"8e798421","totalIdeas()":"38a93ba0","transferOwnership(address)":"f2fde38b","unpause()":"3f4ba83a"},"id":0}