{"abi":[{"type":"constructor","inputs":[{"name":"_feeRecipient","type":"address","internalType":"address"}],"stateMutability":"nonpayable"},{"type":"function","name":"FEE_BPS","inputs":[],"outputs":[{"name":"","type":"uint256","internalType":"uint256"}],"stateMutability":"view"},{"type":"function","name":"balances","inputs":[{"name":"","type":"address","internalType":"address"}],"outputs":[{"name":"","type":"uint256","internalType":"uint256"}],"stateMutability":"view"},{"type":"function","name":"deposit","inputs":[],"outputs":[],"stateMutability":"payable"},{"type":"function","name":"feeRecipient","inputs":[],"outputs":[{"name":"","type":"address","internalType":"address"}],"stateMutability":"view"},{"type":"function","name":"getBalance","inputs":[{"name":"user","type":"address","internalType":"address"}],"outputs":[{"name":"","type":"uint256","internalType":"uint256"}],"stateMutability":"view"},{"type":"function","name":"owner","inputs":[],"outputs":[{"name":"","type":"address","internalType":"address"}],"stateMutability":"view"},{"type":"function","name":"renounceOwnership","inputs":[],"outputs":[],"stateMutability":"nonpayable"},{"type":"function","name":"setFeeRecipient","inputs":[{"name":"newRecipient","type":"address","internalType":"address"}],"outputs":[],"stateMutability":"nonpayable"},{"type":"function","name":"totalDeposits","inputs":[],"outputs":[{"name":"","type":"uint256","internalType":"uint256"}],"stateMutability":"view"},{"type":"function","name":"transferOwnership","inputs":[{"name":"newOwner","type":"address","internalType":"address"}],"outputs":[],"stateMutability":"nonpayable"},{"type":"function","name":"withdraw","inputs":[{"name":"amount","type":"uint256","internalType":"uint256"}],"outputs":[],"stateMutability":"nonpayable"},{"type":"event","name":"Deposited","inputs":[{"name":"user","type":"address","indexed":true,"internalType":"address"},{"name":"amount","type":"uint256","indexed":false,"internalType":"uint256"}],"anonymous":false},{"type":"event","name":"OwnershipTransferred","inputs":[{"name":"previousOwner","type":"address","indexed":true,"internalType":"address"},{"name":"newOwner","type":"address","indexed":true,"internalType":"address"}],"anonymous":false},{"type":"event","name":"Withdrawn","inputs":[{"name":"user","type":"address","indexed":true,"internalType":"address"},{"name":"amount","type":"uint256","indexed":false,"internalType":"uint256"}],"anonymous":false},{"type":"error","name":"InsufficientBalance","inputs":[]},{"type":"error","name":"OwnableInvalidOwner","inputs":[{"name":"owner","type":"address","internalType":"address"}]},{"type":"error","name":"OwnableUnauthorizedAccount","inputs":[{"name":"account","type":"address","internalType":"address"}]},{"type":"error","name":"ReentrancyGuardReentrantCall","inputs":[]},{"type":"error","name":"TransferFailed","inputs":[]},{"type":"error","name":"ZeroAmount","inputs":[]}],"bytecode":{"object":"0x60803461012157601f61075238819003918201601f19168301916001600160401b038311848410176101255780849260209460405283398101031261012157516001600160a01b0380821691829003610121573315610109575f549060018060a01b03199133838216175f55604051913391167f8be0079c531659141344cd1fd0a4f28419497f9722a3daafe3b4186f6b6457e05f80a360017f9b779b17422d0df92223018b32b4d1fa46e071723d6817e2486d003becc55f005582156100d857506003541617600355604051610618908161013a8239f35b62461bcd60e51b815260206004820152600c60248201526b5a65726f206164647265737360a01b6044820152606490fd5b604051631e4fbdf760e01b81525f6004820152602490fd5b5f80fd5b634e487b7160e01b5f52604160045260245ffdfe608060409080825260049081361015610016575f80fd5b5f3560e01c90816327e235e3146104b1575080632e1a7d4d146103d157806346904840146103a9578063715018a6146103525780637d882097146103345780638da5cb5b1461030d578063bf333f2c146102f2578063d0e30db0146101e1578063e74b981b14610166578063f2fde38b146100d65763f8b2cb4f14610099575f80fd5b346100d25760203660031901126100d257356001600160a01b03811691908290036100d2576020915f5260018252805f20549051908152f35b5f80fd5b5090346100d25760203660031901126100d2576001600160a01b038235818116939192908490036100d2576101096105b7565b83156101505750505f54826bffffffffffffffffffffffff60a01b8216175f55167f8be0079c531659141344cd1fd0a4f28419497f9722a3daafe3b4186f6b6457e05f80a3005b905f6024925191631e4fbdf760e01b8352820152fd5b50346100d25760203660031901126100d25780356001600160a01b03811692908390036100d2576101956105b7565b82156101af57600380546001600160a01b03191684179055005b906020606492519162461bcd60e51b8352820152600c60248201526b5a65726f206164647265737360a01b6044820152fd5b50905f3660031901126100d2576101f6610575565b34156102e557606434023481046064036102d25761271090049161021a83346104e9565b92335f526001602052825f20610231858254610568565b905561023f84600254610568565b6002558061029a575b5050519081527f2da466a7b24304f47e87fa2e1e5a81b9831ce54fec19055ce277ca2f39ba42c460203392a260017f9b779b17422d0df92223018b32b4d1fa46e071723d6817e2486d003becc55f0055005b6003545f918291829182916001600160a01b03165af16102b861050a565b50156102c45780610248565b90516312171d8360e31b8152fd5b601183634e487b7160e01b5f525260245ffd5b51631f2a200560e01b8152fd5b82346100d2575f3660031901126100d2576020905160648152f35b82346100d2575f3660031901126100d2575f5490516001600160a01b039091168152602090f35b82346100d2575f3660031901126100d2576020906002549051908152f35b346100d2575f3660031901126100d25761036a6105b7565b5f80546001600160a01b0319811682556001600160a01b03167f8be0079c531659141344cd1fd0a4f28419497f9722a3daafe3b4186f6b6457e08280a3005b82346100d2575f3660031901126100d25760035490516001600160a01b039091168152602090f35b5090346100d25760203660031901126100d2578135916103ef610575565b82156104a357335f52600160205282825f20541061049557335f526001602052815f2061041d8482546104e9565b905561042b836002546104e9565b6002555f80808086335af161043e61050a565b50156102c45750519081527f7084f5476618d8e60b11ef0d7d3f06914655adb8793e28ff7f018d4c76d505d560203392a260017f9b779b17422d0df92223018b32b4d1fa46e071723d6817e2486d003becc55f0055005b9051631e9acf1760e31b8152fd5b9051631f2a200560e01b8152fd5b919050346100d25760203660031901126100d257356001600160a01b03811692908390036100d2576020925f52600183525f20548152f35b919082039182116104f657565b634e487b7160e01b5f52601160045260245ffd5b3d156105635767ffffffffffffffff903d82811161054f5760405192601f8201601f19908116603f011684019081118482101761054f5760405282523d5f602084013e565b634e487b7160e01b5f52604160045260245ffd5b606090565b919082018092116104f657565b7f9b779b17422d0df92223018b32b4d1fa46e071723d6817e2486d003becc55f0060028154146105a55760029055565b604051633ee5aeb560e01b8152600490fd5b5f546001600160a01b031633036105ca57565b60405163118cdaa760e01b8152336004820152602490fdfea2646970667358221220cb5a98055a53163e2ec41d74a76dba56e3275e32f13673c9dff2697bddfdb9d664736f6c63430008180033","linkReferences":{}},"methodIdentifiers":{"FEE_BPS()":"bf333f2c","balances(address)":"27e235e3","deposit()":"d0e30db0","feeRecipient()":"46904840","getBalance(address)":"f8b2cb4f","owner()":"8da5cb5b","renounceOwnership()":"715018a6","setFeeRecipient(address)":"e74b981b","totalDeposits()":"7d882097","transferOwnership(address)":"f2fde38b","withdraw(uint256)":"2e1a7d4d"},"id":1}